{
  "_format": "hh-sol-artifact-1",
  "contractName": "Wordle",
  "sourceName": "contracts/Wordle.sol",
  "abi": [
    {
      "inputs": [],
      "stateMutability": "payable",
      "type": "constructor"
    },
    {
      "inputs": [
        {
          "internalType": "uint256",
          "name": "_value",
          "type": "uint256"
        }
      ],
      "name": "ContractDoesNotHaveEnoughFunds",
      "type": "error"
    },
    {
      "inputs": [],
      "name": "ContractHasNoBalance",
      "type": "error"
    },
    {
      "inputs": [],
      "name": "PlayerHasAlreadySolvedWordle",
      "type": "error"
    },
    {
      "inputs": [
        {
          "internalType": "string",
          "name": "_message",
          "type": "string"
        }
      ],
      "name": "PlayerHasMadeTooManyAttempts",
      "type": "error"
    },
    {
      "inputs": [],
      "name": "PlayerIsNotOwner",
      "type": "error"
    },
    {
      "inputs": [
        {
          "internalType": "uint256",
          "name": "_fee",
          "type": "uint256"
        }
      ],
      "name": "PlayerMustPayFeeToPlay",
      "type": "error"
    },
    {
      "inputs": [],
      "name": "WithdrawalFailed",
      "type": "error"
    },
    {
      "inputs": [
        {
          "internalType": "uint256",
          "name": "_value",
          "type": "uint256"
        }
      ],
      "name": "WithdrawalMustBeNonZero",
      "type": "error"
    },
    {
      "inputs": [],
      "name": "WordleIsNotReady",
      "type": "error"
    },
    {
      "anonymous": false,
      "inputs": [
        {
          "indexed": false,
          "internalType": "uint256",
          "name": "_accumulator",
          "type": "uint256"
        },
        {
          "indexed": false,
          "internalType": "uint256",
          "name": "_modulus",
          "type": "uint256"
        },
        {
          "indexed": false,
          "internalType": "uint256[]",
          "name": "_witnesses",
          "type": "uint256[]"
        }
      ],
      "name": "CreatedNewWordlePuzzle",
      "type": "event"
    },
    {
      "anonymous": false,
      "inputs": [
        {
          "indexed": true,
          "internalType": "address",
          "name": "_leaderAddr",
          "type": "address"
        },
        {
          "indexed": false,
          "internalType": "uint256",
          "name": "_amount",
          "type": "uint256"
        }
      ],
      "name": "LeaderboardSuccessfullyFunded",
      "type": "event"
    },
    {
      "anonymous": false,
      "inputs": [
        {
          "indexed": true,
          "internalType": "address",
          "name": "_player",
          "type": "address"
        },
        {
          "indexed": false,
          "internalType": "uint8",
          "name": "attemptNumber",
          "type": "uint8"
        },
        {
          "indexed": false,
          "internalType": "uint256",
          "name": "_wordlePuzzleNo",
          "type": "uint256"
        },
        {
          "indexed": false,
          "internalType": "bool[]",
          "name": "_answer",
          "type": "bool[]"
        },
        {
          "indexed": false,
          "internalType": "bool",
          "name": "isSolved",
          "type": "bool"
        }
      ],
      "name": "PlayerMadeAttempt",
      "type": "event"
    },
    {
      "anonymous": false,
      "inputs": [
        {
          "indexed": true,
          "internalType": "address",
          "name": "_player",
          "type": "address"
        },
        {
          "indexed": false,
          "internalType": "uint256",
          "name": "_wordlePuzzleNo",
          "type": "uint256"
        }
      ],
      "name": "PlayerSolvedWordle",
      "type": "event"
    },
    {
      "anonymous": false,
      "inputs": [
        {
          "indexed": false,
          "internalType": "uint256",
          "name": "_value",
          "type": "uint256"
        }
      ],
      "name": "WithdrawalSuccessful",
      "type": "event"
    },
    {
      "stateMutability": "payable",
      "type": "fallback"
    },
    {
      "inputs": [],
      "name": "FEE",
      "outputs": [
        {
          "internalType": "uint256",
          "name": "",
          "type": "uint256"
        }
      ],
      "stateMutability": "view",
      "type": "function"
    },
    {
      "inputs": [],
      "name": "MAX_ATTEMPTS",
      "outputs": [
        {
          "internalType": "uint8",
          "name": "",
          "type": "uint8"
        }
      ],
      "stateMutability": "view",
      "type": "function"
    },
    {
      "inputs": [],
      "name": "accumulator",
      "outputs": [
        {
          "internalType": "uint256",
          "name": "",
          "type": "uint256"
        }
      ],
      "stateMutability": "view",
      "type": "function"
    },
    {
      "inputs": [
        {
          "internalType": "bool[]",
          "name": "_answer",
          "type": "bool[]"
        }
      ],
      "name": "checkIfSolved",
      "outputs": [
        {
          "internalType": "bool",
          "name": "isAllTrue",
          "type": "bool"
        }
      ],
      "stateMutability": "pure",
      "type": "function"
    },
    {
      "inputs": [
        {
          "internalType": "uint256",
          "name": "_base",
          "type": "uint256"
        },
        {
          "internalType": "uint8[]",
          "name": "binaryArr",
          "type": "uint8[]"
        },
        {
          "internalType": "uint256",
          "name": "_modulus",
          "type": "uint256"
        }
      ],
      "name": "createMemoArrayOfPowersOfTwo",
      "outputs": [
        {
          "internalType": "uint256[]",
          "name": "memo",
          "type": "uint256[]"
        }
      ],
      "stateMutability": "pure",
      "type": "function"
    },
    {
      "inputs": [
        {
          "internalType": "uint256",
          "name": "_accumulator",
          "type": "uint256"
        },
        {
          "internalType": "uint256",
          "name": "_modulus",
          "type": "uint256"
        },
        {
          "internalType": "uint256[]",
          "name": "_witnesses",
          "type": "uint256[]"
        }
      ],
      "name": "createNewWordlePuzzle",
      "outputs": [],
      "stateMutability": "nonpayable",
      "type": "function"
    },
    {
      "inputs": [
        {
          "internalType": "address",
          "name": "",
          "type": "address"
        },
        {
          "internalType": "uint256",
          "name": "",
          "type": "uint256"
        },
        {
          "internalType": "uint256",
          "name": "",
          "type": "uint256"
        },
        {
          "internalType": "uint256",
          "name": "",
          "type": "uint256"
        }
      ],
      "name": "currentAnswers",
      "outputs": [
        {
          "internalType": "bool",
          "name": "",
          "type": "bool"
        }
      ],
      "stateMutability": "view",
      "type": "function"
    },
    {
      "inputs": [
        {
          "internalType": "address",
          "name": "",
          "type": "address"
        },
        {
          "internalType": "uint256",
          "name": "",
          "type": "uint256"
        },
        {
          "internalType": "uint256",
          "name": "",
          "type": "uint256"
        },
        {
          "internalType": "uint256",
          "name": "",
          "type": "uint256"
        }
      ],
      "name": "currentAttempts",
      "outputs": [
        {
          "internalType": "uint256",
          "name": "",
          "type": "uint256"
        }
      ],
      "stateMutability": "view",
      "type": "function"
    },
    {
      "inputs": [
        {
          "internalType": "uint256",
          "name": "_base",
          "type": "uint256"
        },
        {
          "internalType": "uint8[]",
          "name": "binaryArr",
          "type": "uint8[]"
        },
        {
          "internalType": "uint256",
          "name": "_modulus",
          "type": "uint256"
        }
      ],
      "name": "divideAndConquer",
      "outputs": [
        {
          "internalType": "uint256",
          "name": "result",
          "type": "uint256"
        }
      ],
      "stateMutability": "pure",
      "type": "function"
    },
    {
      "inputs": [
        {
          "internalType": "uint256",
          "name": "_base",
          "type": "uint256"
        },
        {
          "internalType": "uint256",
          "name": "_exponent",
          "type": "uint256"
        },
        {
          "internalType": "uint256",
          "name": "_modulus",
          "type": "uint256"
        }
      ],
      "name": "fastModExp",
      "outputs": [
        {
          "internalType": "uint256",
          "name": "",
          "type": "uint256"
        }
      ],
      "stateMutability": "pure",
      "type": "function"
    },
    {
      "inputs": [
        {
          "internalType": "uint256",
          "name": "_amount",
          "type": "uint256"
        }
      ],
      "name": "fundLeaderboard",
      "outputs": [],
      "stateMutability": "payable",
      "type": "function"
    },
    {
      "inputs": [
        {
          "internalType": "address",
          "name": "_player",
          "type": "address"
        }
      ],
      "name": "getCurrentAnswers",
      "outputs": [
        {
          "internalType": "bool[][]",
          "name": "",
          "type": "bool[][]"
        }
      ],
      "stateMutability": "view",
      "type": "function"
    },
    {
      "inputs": [
        {
          "internalType": "address",
          "name": "_player",
          "type": "address"
        }
      ],
      "name": "getCurrentAttempts",
      "outputs": [
        {
          "internalType": "uint256[][]",
          "name": "",
          "type": "uint256[][]"
        }
      ],
      "stateMutability": "view",
      "type": "function"
    },
    {
      "inputs": [],
      "name": "getPlayers",
      "outputs": [
        {
          "internalType": "address[]",
          "name": "",
          "type": "address[]"
        }
      ],
      "stateMutability": "view",
      "type": "function"
    },
    {
      "inputs": [
        {
          "internalType": "uint256",
          "name": "n",
          "type": "uint256"
        }
      ],
      "name": "intToBinary",
      "outputs": [
        {
          "internalType": "uint8[]",
          "name": "output",
          "type": "uint8[]"
        }
      ],
      "stateMutability": "pure",
      "type": "function"
    },
    {
      "inputs": [],
      "name": "leaderboard",
      "outputs": [
        {
          "internalType": "contract ILeaderboard",
          "name": "",
          "type": "address"
        }
      ],
      "stateMutability": "view",
      "type": "function"
    },
    {
      "inputs": [
        {
          "internalType": "uint256",
          "name": "x",
          "type": "uint256"
        }
      ],
      "name": "log2ceil",
      "outputs": [
        {
          "internalType": "uint256",
          "name": "y",
          "type": "uint256"
        }
      ],
      "stateMutability": "pure",
      "type": "function"
    },
    {
      "inputs": [
        {
          "internalType": "uint256[]",
          "name": "guesses",
          "type": "uint256[]"
        }
      ],
      "name": "makeAttempt",
      "outputs": [
        {
          "internalType": "bool[]",
          "name": "answer",
          "type": "bool[]"
        },
        {
          "internalType": "bool",
          "name": "isSolved",
          "type": "bool"
        }
      ],
      "stateMutability": "payable",
      "type": "function"
    },
    {
      "inputs": [],
      "name": "modulus",
      "outputs": [
        {
          "internalType": "uint256",
          "name": "",
          "type": "uint256"
        }
      ],
      "stateMutability": "view",
      "type": "function"
    },
    {
      "inputs": [],
      "name": "owner",
      "outputs": [
        {
          "internalType": "address",
          "name": "",
          "type": "address"
        }
      ],
      "stateMutability": "view",
      "type": "function"
    },
    {
      "inputs": [
        {
          "internalType": "uint256",
          "name": "",
          "type": "uint256"
        },
        {
          "internalType": "address",
          "name": "",
          "type": "address"
        }
      ],
      "name": "playerAttempts",
      "outputs": [
        {
          "internalType": "uint8",
          "name": "",
          "type": "uint8"
        }
      ],
      "stateMutability": "view",
      "type": "function"
    },
    {
      "inputs": [],
      "name": "playerAttemptsLength",
      "outputs": [
        {
          "internalType": "uint256",
          "name": "",
          "type": "uint256"
        }
      ],
      "stateMutability": "view",
      "type": "function"
    },
    {
      "inputs": [
        {
          "internalType": "address",
          "name": "",
          "type": "address"
        },
        {
          "internalType": "uint256",
          "name": "",
          "type": "uint256"
        }
      ],
      "name": "playerPuzzleNumberSolved",
      "outputs": [
        {
          "internalType": "bool",
          "name": "",
          "type": "bool"
        }
      ],
      "stateMutability": "view",
      "type": "function"
    },
    {
      "inputs": [
        {
          "internalType": "address",
          "name": "",
          "type": "address"
        }
      ],
      "name": "playerPuzzleSolvedCount",
      "outputs": [
        {
          "internalType": "uint256",
          "name": "",
          "type": "uint256"
        }
      ],
      "stateMutability": "view",
      "type": "function"
    },
    {
      "inputs": [],
      "name": "playerPuzzleSolvedCountLength",
      "outputs": [
        {
          "internalType": "uint256",
          "name": "",
          "type": "uint256"
        }
      ],
      "stateMutability": "view",
      "type": "function"
    },
    {
      "inputs": [
        {
          "internalType": "uint256",
          "name": "",
          "type": "uint256"
        }
      ],
      "name": "players",
      "outputs": [
        {
          "internalType": "address",
          "name": "",
          "type": "address"
        }
      ],
      "stateMutability": "view",
      "type": "function"
    },
    {
      "inputs": [
        {
          "internalType": "uint256",
          "name": "_base",
          "type": "uint256"
        },
        {
          "internalType": "uint256",
          "name": "_exponent",
          "type": "uint256"
        },
        {
          "internalType": "uint256",
          "name": "_modulus",
          "type": "uint256"
        }
      ],
      "name": "powerMod",
      "outputs": [
        {
          "internalType": "uint256",
          "name": "result",
          "type": "uint256"
        }
      ],
      "stateMutability": "pure",
      "type": "function"
    },
    {
      "inputs": [],
      "name": "resetAllAttempts",
      "outputs": [],
      "stateMutability": "nonpayable",
      "type": "function"
    },
    {
      "inputs": [
        {
          "internalType": "address",
          "name": "_addr",
          "type": "address"
        }
      ],
      "name": "setLeaderboardAddress",
      "outputs": [],
      "stateMutability": "payable",
      "type": "function"
    },
    {
      "inputs": [
        {
          "internalType": "uint256",
          "name": "guess",
          "type": "uint256"
        }
      ],
      "name": "verifyMembership",
      "outputs": [
        {
          "internalType": "bool",
          "name": "",
          "type": "bool"
        }
      ],
      "stateMutability": "view",
      "type": "function"
    },
    {
      "inputs": [
        {
          "internalType": "uint8",
          "name": "index",
          "type": "uint8"
        },
        {
          "internalType": "uint256",
          "name": "guess",
          "type": "uint256"
        }
      ],
      "name": "verifyPosition",
      "outputs": [
        {
          "internalType": "bool",
          "name": "",
          "type": "bool"
        }
      ],
      "stateMutability": "view",
      "type": "function"
    },
    {
      "inputs": [],
      "name": "withdraw",
      "outputs": [],
      "stateMutability": "nonpayable",
      "type": "function"
    },
    {
      "inputs": [
        {
          "internalType": "uint256",
          "name": "",
          "type": "uint256"
        }
      ],
      "name": "witnesses",
      "outputs": [
        {
          "internalType": "uint256",
          "name": "",
          "type": "uint256"
        }
      ],
      "stateMutability": "view",
      "type": "function"
    },
    {
      "inputs": [],
      "name": "wordlePuzzleNo",
      "outputs": [
        {
          "internalType": "uint256",
          "name": "",
          "type": "uint256"
        }
      ],
      "stateMutability": "view",
      "type": "function"
    },
    {
      "stateMutability": "payable",
      "type": "receive"
    }
  ],
  "bytecode": "0x60806040526000600155336000806101000a81548173ffffffffffffffffffffffffffffffffffffffff021916908373ffffffffffffffffffffffffffffffffffffffff160217905550613d5c806100586000396000f3fe6080604052600436106101fd5760003560e01c806369a691bb1161010d578063c0aff724116100a0578063e9308f3a1161006f578063e9308f3a146107d2578063eb56b740146107ee578063ebbe743a14610819578063f71d96cb14610856578063ff4b04001461089357610204565b8063c0aff72414610737578063c57981b51461074e578063ccee23cb14610779578063e27d51531461079557610204565b8063a9c18b59116100dc578063a9c18b5914610655578063aada848714610680578063abc27ff1146106bd578063c032f720146106fa57610204565b806369a691bb146105a95780638b5b9ccc146105d45780638d9bece5146105ff5780638da5cb5b1461062a57610204565b806330e4349c116101905780633ccfd60b1161015f5780633ccfd60b1461049e57806363e2488e146104b557806365be5f53146104f25780636678703c1461052f578063670a8cb71461056c57610204565b806330e4349c146103bc578063355233f5146103e757806336ad7b90146104245780633b48766e1461046157610204565b80630f5acaac116101cc5780630f5acaac146102e85780631cc7684a146103115780631e6aa351146103425780632579d9121461037f57610204565b8063033811541461020657806303f6e274146102315780630bdf6e501461026e5780630df92eaf146102ab57610204565b3661020457005b005b34801561021257600080fd5b5061021b6108be565b6040516102289190612969565b60405180910390f35b34801561023d57600080fd5b5061025860048036038101906102539190612a22565b6108c4565b6040516102659190612a7d565b60405180910390f35b34801561027a57600080fd5b5061029560048036038101906102909190612a98565b6108f3565b6040516102a29190612af4565b60405180910390f35b3480156102b757600080fd5b506102d260048036038101906102cd9190612b0f565b610922565b6040516102df9190612cbc565b60405180910390f35b3480156102f457600080fd5b5061030f600480360381019061030a9190612d43565b610a13565b005b61032b60048036038101906103269190612db7565b610b03565b604051610339929190612ec2565b60405180910390f35b34801561034e57600080fd5b506103696004803603810190610364919061306d565b6112f2565b6040516103769190612a7d565b60405180910390f35b34801561038b57600080fd5b506103a660048036038101906103a19190612b0f565b61134b565b6040516103b39190612969565b60405180910390f35b3480156103c857600080fd5b506103d1611363565b6040516103de9190612af4565b60405180910390f35b3480156103f357600080fd5b5061040e600480360381019061040991906130b6565b611368565b60405161041b9190612a7d565b60405180910390f35b34801561043057600080fd5b5061044b600480360381019061044691906130b6565b611464565b60405161045891906131a1565b60405180910390f35b34801561046d57600080fd5b50610488600480360381019061048391906131ef565b61167a565b6040516104959190612a7d565b60405180910390f35b3480156104aa57600080fd5b506104b361174b565b005b3480156104c157600080fd5b506104dc60048036038101906104d7919061322f565b611930565b6040516104e99190612969565b60405180910390f35b3480156104fe57600080fd5b5061051960048036038101906105149190612b0f565b6119bc565b60405161052691906133b3565b60405180910390f35b34801561053b57600080fd5b5061055660048036038101906105519190613498565b611ad2565b6040516105639190612969565b60405180910390f35b34801561057857600080fd5b50610593600480360381019061058e91906130b6565b611bf9565b6040516105a09190612969565b60405180910390f35b3480156105b557600080fd5b506105be611c1d565b6040516105cb9190612969565b60405180910390f35b3480156105e057600080fd5b506105e9611c23565b6040516105f691906135c5565b60405180910390f35b34801561060b57600080fd5b50610614611cb1565b6040516106219190612969565b60405180910390f35b34801561063657600080fd5b5061063f611cb7565b60405161064c91906135f6565b60405180910390f35b34801561066157600080fd5b5061066a611cdb565b6040516106779190612969565b60405180910390f35b34801561068c57600080fd5b506106a760048036038101906106a29190613611565b611ce1565b6040516106b49190612a7d565b60405180910390f35b3480156106c957600080fd5b506106e460048036038101906106df9190613611565b611d4a565b6040516106f19190612969565b60405180910390f35b34801561070657600080fd5b50610721600480360381019061071c919061322f565b611da1565b60405161072e9190612969565b60405180910390f35b34801561074357600080fd5b5061074c611dc4565b005b34801561075a57600080fd5b50610763611fdb565b6040516107709190612969565b60405180910390f35b610793600480360381019061078e91906130b6565b611fe6565b005b3480156107a157600080fd5b506107bc60048036038101906107b791906130b6565b612221565b6040516107c99190612969565b60405180910390f35b6107ec60048036038101906107e79190612b0f565b61244d565b005b3480156107fa57600080fd5b50610803612516565b60405161081091906136d7565b60405180910390f35b34801561082557600080fd5b50610840600480360381019061083b9190613498565b61253c565b60405161084d9190613761565b60405180910390f35b34801561086257600080fd5b5061087d600480360381019061087891906130b6565b612687565b60405161088a91906135f6565b60405180910390f35b34801561089f57600080fd5b506108a86126c6565b6040516108b59190612969565b60405180910390f35b60025481565b600c6020528160005260406000206020528060005260406000206000915091509054906101000a900460ff1681565b60066020528160005260406000206020528060005260406000206000915091509054906101000a900460ff1681565b6060600860008373ffffffffffffffffffffffffffffffffffffffff1673ffffffffffffffffffffffffffffffffffffffff16815260200190815260200160002060006001548152602001908152602001600020805480602002602001604051908101604052809291908181526020016000905b82821015610a08578382906000526020600020018054806020026020016040519081016040528092919081815260200182805480156109f457602002820191906000526020600020905b8154815260200190600101908083116109e0575b505050505081526020019060010190610996565b505050509050919050565b60008054906101000a900473ffffffffffffffffffffffffffffffffffffffff1673ffffffffffffffffffffffffffffffffffffffff163373ffffffffffffffffffffffffffffffffffffffff1614610a98576040517fea725c7e00000000000000000000000000000000000000000000000000000000815260040160405180910390fd5b8360028190555082600381905550818160049190610ab792919061276d565b50610ac0611dc4565b7fc22ce515ebe4346fd6b069a68069a73ef3ef5c4005c4390d72aa5a28296db2d484848484604051610af594939291906137f3565b60405180910390a150505050565b60606000806002541480610b1957506000600354145b80610b2957506000600480549050145b15610b60576040517f4c1f912f00000000000000000000000000000000000000000000000000000000815260040160405180910390fd5b66027ca57357c000341015610bb35766027ca57357c0006040517f970c7abd000000000000000000000000000000000000000000000000000000008152600401610baa9190612969565b60405180910390fd5b600060066000600154815260200190815260200160002060003373ffffffffffffffffffffffffffffffffffffffff1673ffffffffffffffffffffffffffffffffffffffff16815260200190815260200160002060009054906101000a900460ff1690506000600c60003373ffffffffffffffffffffffffffffffffffffffff1673ffffffffffffffffffffffffffffffffffffffff1681526020019081526020016000206000600154815260200190815260200160002060009054906101000a900460ff169050600560ff168260ff161115610cc5576040517f7bfea103000000000000000000000000000000000000000000000000000000008152600401610cbc906138dc565b60405180910390fd5b600115158115151415610d04576040517f1fde072000000000000000000000000000000000000000000000000000000000815260040160405180910390fd5b8585905067ffffffffffffffff811115610d2157610d20612f03565b5b604051908082528060200260200182016040528015610d4f5781602001602082028036833780820191505090505b50935060005b60058160ff161015610dc8576000610d898289898560ff16818110610d7d57610d7c6138fc565b5b9050602002013561167a565b905080868360ff1681518110610da257610da16138fc565b5b602002602001019015159081151581525050508080610dc09061395a565b915050610d55565b506000600590505b868690508160ff161015610e44576000610e0588888460ff16818110610df957610df86138fc565b5b90506020020135611368565b905080868360ff1681518110610e1e57610e1d6138fc565b5b602002602001019015159081151581525050508080610e3c9061395a565b915050610dd0565b506000600b60003373ffffffffffffffffffffffffffffffffffffffff1673ffffffffffffffffffffffffffffffffffffffff16815260200190815260200160002054148015610e9a5750610e98336126cc565b155b15610f0357600a339080600181540180825580915050600190039060005260206000200160009091909190916101000a81548173ffffffffffffffffffffffffffffffffffffffff021916908373ffffffffffffffffffffffffffffffffffffffff1602179055505b6000600860003373ffffffffffffffffffffffffffffffffffffffff1673ffffffffffffffffffffffffffffffffffffffff16815260200190815260200160002060006001548152602001908152602001600020905080878790918060018154018082558091505060019003906000526020600020016000909192909192909192909192509190610f9592919061276d565b506000600960003373ffffffffffffffffffffffffffffffffffffffff1673ffffffffffffffffffffffffffffffffffffffff16815260200190815260200160002060006001548152602001908152602001600020905080869080600181540180825580915050600190039060005260206000200160009091909190915090805190602001906110269291906127ba565b5060066000600154815260200190815260200160002060003373ffffffffffffffffffffffffffffffffffffffff1673ffffffffffffffffffffffffffffffffffffffff168152602001908152602001600020600081819054906101000a900460ff16809291906110969061395a565b91906101000a81548160ff021916908360ff160217905550506110b8866112f2565b94503373ffffffffffffffffffffffffffffffffffffffff167f235c282a4cc4dd81280a6c292bb419ac90df3c931928524b93ac94f98be5775060066000600154815260200190815260200160002060003373ffffffffffffffffffffffffffffffffffffffff1673ffffffffffffffffffffffffffffffffffffffff16815260200190815260200160002060009054906101000a900460ff1660015489896040516111679493929190613984565b60405180910390a284156112e7576000600b60003373ffffffffffffffffffffffffffffffffffffffff1673ffffffffffffffffffffffffffffffffffffffff1681526020019081526020016000205414156111d657600d60008154809291906111d0906139d0565b91905055505b600b60003373ffffffffffffffffffffffffffffffffffffffff1673ffffffffffffffffffffffffffffffffffffffff1681526020019081526020016000206000815480929190611226906139d0565b91905055506001600c60003373ffffffffffffffffffffffffffffffffffffffff1673ffffffffffffffffffffffffffffffffffffffff1681526020019081526020016000206000600154815260200190815260200160002060006101000a81548160ff0219169083151502179055503373ffffffffffffffffffffffffffffffffffffffff167ff9bb58b11f1356df61ee41e4a1c796d3de80cd56ed69887e4f0d6938ad2d9af16001546040516112de9190612969565b60405180910390a25b505050509250929050565b60006001905060005b82518160ff16101561134557828160ff168151811061131d5761131c6138fc565b5b60200260200101516113325760009150611345565b808061133d9061395a565b9150506112fb565b50919050565b600b6020528060005260406000206000915090505481565b600581565b600080600254148061137c57506000600354145b8061138c57506000600480549050145b156113c3576040517f4c1f912f00000000000000000000000000000000000000000000000000000000815260040160405180910390fd5b6000600590505b6004805490508160ff16101561145957600060048260ff16815481106113f3576113f26138fc565b5b90600052602060002001549050600062010000851161141e576114198286600354611da1565b61142c565b61142b8286600354611930565b5b9050600254811415611444576001935050505061145f565b505080806114519061395a565b9150506113ca565b50600090505b919050565b606060018214156114ea57600167ffffffffffffffff81111561148a57611489612f03565b5b6040519080825280602002602001820160405280156114b85781602001602082028036833780820191505090505b5090506001816000815181106114d1576114d06138fc565b5b602002602001019060ff16908160ff1681525050611675565b600282141561159857600267ffffffffffffffff81111561150e5761150d612f03565b5b60405190808252806020026020018201604052801561153c5781602001602082028036833780820191505090505b509050600181600081518110611555576115546138fc565b5b602002602001019060ff16908160ff168152505060008160018151811061157f5761157e6138fc565b5b602002602001019060ff16908160ff1681525050611675565b60006115a383612221565b90508067ffffffffffffffff8111156115bf576115be612f03565b5b6040519080825280602002602001820160405280156115ed5781602001602082028036833780820191505090505b50915060008190505b600081111561167257600160028561160e9190613a48565b1461161a57600061161d565b60015b8360018361162b9190613a79565b8151811061163c5761163b6138fc565b5b602002602001019060ff16908160ff168152505060028461165d9190613aad565b9350808061166a90613ade565b9150506115f6565b50505b919050565b600080600254148061168e57506000600354145b8061169e57506000600480549050145b156116d5576040517f4c1f912f00000000000000000000000000000000000000000000000000000000815260040160405180910390fd5b600060048460ff16815481106116ee576116ed6138fc565b5b906000526020600020015490506000620100008411611719576117148285600354611da1565b611727565b6117268285600354611930565b5b905060025481141561173e57600192505050611745565b6000925050505b92915050565b60008054906101000a900473ffffffffffffffffffffffffffffffffffffffff1673ffffffffffffffffffffffffffffffffffffffff163373ffffffffffffffffffffffffffffffffffffffff16146117d0576040517fea725c7e00000000000000000000000000000000000000000000000000000000815260040160405180910390fd5b60003073ffffffffffffffffffffffffffffffffffffffff163190506000811161183157806040517f18fd197d0000000000000000000000000000000000000000000000000000000081526004016118289190612969565b60405180910390fd5b60008060009054906101000a900473ffffffffffffffffffffffffffffffffffffffff1673ffffffffffffffffffffffffffffffffffffffff168260405161187890613b39565b60006040518083038185875af1925050503d80600081146118b5576040519150601f19603f3d011682016040523d82523d6000602084013e6118ba565b606091505b50509050806118f5576040517f27fcd9d100000000000000000000000000000000000000000000000000000000815260040160405180910390fd5b7f794032702377d1e7eb93381e2467d569394569207a770af85b3222a361126c91826040516119249190612969565b60405180910390a15050565b6000600182141561194457600090506119b5565b6001905081846119549190613a48565b93505b60008311156119b457600160028461196f9190613a48565b141561198f578184826119829190613b4e565b61198c9190613a48565b90505b600183901c92508184856119a39190613b4e565b6119ad9190613a48565b9350611957565b5b9392505050565b6060600960008373ffffffffffffffffffffffffffffffffffffffff1673ffffffffffffffffffffffffffffffffffffffff16815260200190815260200160002060006001548152602001908152602001600020805480602002602001604051908101604052809291908181526020016000905b82821015611ac757838290600052602060002001805480602002602001604051908101604052809291908181526020018280548015611ab357602002820191906000526020600020906000905b82829054906101000a900460ff16151581526020019060010190602082600001049283019260010382029150808411611a7d5790505b505050505081526020019060010190611a30565b505050509050919050565b600080841415611ae55760009050611bf2565b6000611af285858561253c565b905060005b8451811015611b7557818181518110611b1357611b126138fc565b5b6020026020010151858281518110611b2e57611b2d6138fc565b5b602002602001015160ff16611b439190613b4e565b828281518110611b5657611b556138fc565b5b6020026020010181815250508080611b6d906139d0565b915050611af7565b506001915060005b8151811015611bef576000828281518110611b9b57611b9a6138fc565b5b602002602001015114611bdc5783828281518110611bbc57611bbb6138fc565b5b602002602001015184611bcf9190613b4e565b611bd99190613a48565b92505b8080611be7906139d0565b915050611b7d565b50505b9392505050565b60048181548110611c0957600080fd5b906000526020600020016000915090505481565b60015481565b6060600a805480602002602001604051908101604052809291908181526020018280548015611ca757602002820191906000526020600020905b8160009054906101000a900473ffffffffffffffffffffffffffffffffffffffff1673ffffffffffffffffffffffffffffffffffffffff1681526020019060010190808311611c5d575b5050505050905090565b60075481565b60008054906101000a900473ffffffffffffffffffffffffffffffffffffffff1681565b600d5481565b60096020528360005260406000206020528260005260406000208281548110611d0957600080fd5b906000526020600020018181548110611d2157600080fd5b90600052602060002090602091828204019190069350935050509054906101000a900460ff1681565b60086020528360005260406000206020528260005260406000208281548110611d7257600080fd5b906000526020600020018181548110611d8a57600080fd5b906000526020600020016000935093505050505481565b600080611dad84611464565b9050611dba858285611ad2565b9150509392505050565b60008054906101000a900473ffffffffffffffffffffffffffffffffffffffff1673ffffffffffffffffffffffffffffffffffffffff163373ffffffffffffffffffffffffffffffffffffffff1614611e49576040517fea725c7e00000000000000000000000000000000000000000000000000000000815260040160405180910390fd5b60005b600a80549050811015611fc05760005b6001548111611fac5760086000600a8481548110611e7d57611e7c6138fc565b5b9060005260206000200160009054906101000a900473ffffffffffffffffffffffffffffffffffffffff1673ffffffffffffffffffffffffffffffffffffffff1673ffffffffffffffffffffffffffffffffffffffff16815260200190815260200160002060008281526020019081526020016000206000611eff9190612860565b60096000600a8481548110611f1757611f166138fc565b5b9060005260206000200160009054906101000a900473ffffffffffffffffffffffffffffffffffffffff1673ffffffffffffffffffffffffffffffffffffffff1673ffffffffffffffffffffffffffffffffffffffff16815260200190815260200160002060008281526020019081526020016000206000611f999190612881565b8080611fa4906139d0565b915050611e5c565b508080611fb8906139d0565b915050611e4c565b5060016000815480929190611fd4906139d0565b9190505550565b66027ca57357c00081565b60008054906101000a900473ffffffffffffffffffffffffffffffffffffffff1673ffffffffffffffffffffffffffffffffffffffff163373ffffffffffffffffffffffffffffffffffffffff161461206b576040517fea725c7e00000000000000000000000000000000000000000000000000000000815260040160405180910390fd5b60003073ffffffffffffffffffffffffffffffffffffffff1631116120bc576040517f767dc2c300000000000000000000000000000000000000000000000000000000815260040160405180910390fd5b3073ffffffffffffffffffffffffffffffffffffffff163181111561211857806040517fcea64b3200000000000000000000000000000000000000000000000000000000815260040161210f9190612969565b60405180910390fd5b6000600560009054906101000a900473ffffffffffffffffffffffffffffffffffffffff1673ffffffffffffffffffffffffffffffffffffffff168260405161216090613b39565b60006040518083038185875af1925050503d806000811461219d576040519150601f19603f3d011682016040523d82523d6000602084013e6121a2565b606091505b50509050801561221d57600560009054906101000a900473ffffffffffffffffffffffffffffffffffffffff1673ffffffffffffffffffffffffffffffffffffffff167f0767fda93b49976d94e5f1ef5c2067cabff0848ffe77ac69f55c43a171f5b852836040516122149190612969565b60405180910390a25b5050565b60008160018303925060028304831792506004830483179250601083048317925061010083048317925062010000830483179250640100000000830483179250680100000000000000008304831792507001000000000000000000000000000000008304831792506001830192506040517ff8f9cbfae6cc78fbefe7cdc3a1793dfcf4f0e8bbd8cec470b6a28a7a5a3e1efd81527ff5ecf1b3e9debc68e1d9cfabc5997135bfb7a7a3938b7b606b5b4b3f2f1f0ffe60208201527ff6e4ed9ff2d6b458eadcdf97bd91692de2d4da8fd2d0ac50c6ae9a827252361660408201527fc8c0b887b0a8a4489c948c7f847c6125746c645c544c444038302820181008ff60608201527ff7cae577eec2a03cf3bad76fb589591debb2dd67e0aa9834bea6925f6a4a2e0e60808201527fe39ed557db96902cd38ed14fad815115c786af479b7e8324736353433727170760a08201527fc976c13bb96e881cb166a933a55e490d9d56952b8d4e801485467d236242260660c08201527f753a6d1b65325d0c552a4d1345224105391a310b29122104190a11030902010060e082015261010081016040527e818283848586878898a8b8c8d8e8f929395969799a9b9d9e9faaeb6bedeeff7f01000000000000000000000000000000000000000000000000000000000000008082870204818160ff038501510495507f8000000000000000000000000000000000000000000000000000000000000000851161010002860195505050505050919050565b60008054906101000a900473ffffffffffffffffffffffffffffffffffffffff1673ffffffffffffffffffffffffffffffffffffffff163373ffffffffffffffffffffffffffffffffffffffff16146124d2576040517fea725c7e00000000000000000000000000000000000000000000000000000000815260040160405180910390fd5b80600560006101000a81548173ffffffffffffffffffffffffffffffffffffffff021916908373ffffffffffffffffffffffffffffffffffffffff16021790555050565b600560009054906101000a900473ffffffffffffffffffffffffffffffffffffffff1681565b6060825167ffffffffffffffff81111561255957612558612f03565b5b6040519080825280602002602001820160405280156125875781602001602082028036833780820191505090505b509050816001856125989190613cdb565b6125a29190613a48565b81600185516125b19190613a79565b815181106125c2576125c16138fc565b5b6020026020010181815250506000835190505b600181111561267f5782826001836125ed9190613a79565b815181106125fe576125fd6138fc565b5b6020026020010151836001846126149190613a79565b81518110612625576126246138fc565b5b60200260200101516126379190613b4e565b6126419190613a48565b8260028361264f9190613a79565b815181106126605761265f6138fc565b5b602002602001018181525050808061267790613ade565b9150506125d5565b509392505050565b600a818154811061269757600080fd5b906000526020600020016000915054906101000a900473ffffffffffffffffffffffffffffffffffffffff1681565b60035481565b6000805b600a80549050811015612767578273ffffffffffffffffffffffffffffffffffffffff16600a8281548110612708576127076138fc565b5b9060005260206000200160009054906101000a900473ffffffffffffffffffffffffffffffffffffffff1673ffffffffffffffffffffffffffffffffffffffff16141561275457600191505b808061275f906139d0565b9150506126d0565b50919050565b8280548282559060005260206000209081019282156127a9579160200282015b828111156127a857823582559160200191906001019061278d565b5b5090506127b691906128a2565b5090565b82805482825590600052602060002090601f0160209004810192821561284f5791602002820160005b8382111561282057835183826101000a81548160ff02191690831515021790555092602001926001016020816000010492830192600103026127e3565b801561284d5782816101000a81549060ff0219169055600101602081600001049283019260010302612820565b505b50905061285c91906128a2565b5090565b508054600082559060005260206000209081019061287e91906128bf565b50565b508054600082559060005260206000209081019061289f91906128e3565b50565b5b808211156128bb5760008160009055506001016128a3565b5090565b5b808211156128df57600081816128d69190612907565b506001016128c0565b5090565b5b8082111561290357600081816128fa9190612928565b506001016128e4565b5090565b508054600082559060005260206000209081019061292591906128a2565b50565b50805460008255601f01602090049060005260206000209081019061294d91906128a2565b50565b6000819050919050565b61296381612950565b82525050565b600060208201905061297e600083018461295a565b92915050565b6000604051905090565b600080fd5b600080fd5b600073ffffffffffffffffffffffffffffffffffffffff82169050919050565b60006129c382612998565b9050919050565b6129d3816129b8565b81146129de57600080fd5b50565b6000813590506129f0816129ca565b92915050565b6129ff81612950565b8114612a0a57600080fd5b50565b600081359050612a1c816129f6565b92915050565b60008060408385031215612a3957612a3861298e565b5b6000612a47858286016129e1565b9250506020612a5885828601612a0d565b9150509250929050565b60008115159050919050565b612a7781612a62565b82525050565b6000602082019050612a926000830184612a6e565b92915050565b60008060408385031215612aaf57612aae61298e565b5b6000612abd85828601612a0d565b9250506020612ace858286016129e1565b9150509250929050565b600060ff82169050919050565b612aee81612ad8565b82525050565b6000602082019050612b096000830184612ae5565b92915050565b600060208284031215612b2557612b2461298e565b5b6000612b33848285016129e1565b91505092915050565b600081519050919050565b600082825260208201905092915050565b6000819050602082019050919050565b600081519050919050565b600082825260208201905092915050565b6000819050602082019050919050565b612b9d81612950565b82525050565b6000612baf8383612b94565b60208301905092915050565b6000602082019050919050565b6000612bd382612b68565b612bdd8185612b73565b9350612be883612b84565b8060005b83811015612c19578151612c008882612ba3565b9750612c0b83612bbb565b925050600181019050612bec565b5085935050505092915050565b6000612c328383612bc8565b905092915050565b6000602082019050919050565b6000612c5282612b3c565b612c5c8185612b47565b935083602082028501612c6e85612b58565b8060005b85811015612caa5784840389528151612c8b8582612c26565b9450612c9683612c3a565b925060208a01995050600181019050612c72565b50829750879550505050505092915050565b60006020820190508181036000830152612cd68184612c47565b905092915050565b600080fd5b600080fd5b600080fd5b60008083601f840112612d0357612d02612cde565b5b8235905067ffffffffffffffff811115612d2057612d1f612ce3565b5b602083019150836020820283011115612d3c57612d3b612ce8565b5b9250929050565b60008060008060608587031215612d5d57612d5c61298e565b5b6000612d6b87828801612a0d565b9450506020612d7c87828801612a0d565b935050604085013567ffffffffffffffff811115612d9d57612d9c612993565b5b612da987828801612ced565b925092505092959194509250565b60008060208385031215612dce57612dcd61298e565b5b600083013567ffffffffffffffff811115612dec57612deb612993565b5b612df885828601612ced565b92509250509250929050565b600081519050919050565b600082825260208201905092915050565b6000819050602082019050919050565b612e3981612a62565b82525050565b6000612e4b8383612e30565b60208301905092915050565b6000602082019050919050565b6000612e6f82612e04565b612e798185612e0f565b9350612e8483612e20565b8060005b83811015612eb5578151612e9c8882612e3f565b9750612ea783612e57565b925050600181019050612e88565b5085935050505092915050565b60006040820190508181036000830152612edc8185612e64565b9050612eeb6020830184612a6e565b9392505050565b6000601f19601f8301169050919050565b7f4e487b7100000000000000000000000000000000000000000000000000000000600052604160045260246000fd5b612f3b82612ef2565b810181811067ffffffffffffffff82111715612f5a57612f59612f03565b5b80604052505050565b6000612f6d612984565b9050612f798282612f32565b919050565b600067ffffffffffffffff821115612f9957612f98612f03565b5b602082029050602081019050919050565b612fb381612a62565b8114612fbe57600080fd5b50565b600081359050612fd081612faa565b92915050565b6000612fe9612fe484612f7e565b612f63565b9050808382526020820190506020840283018581111561300c5761300b612ce8565b5b835b8181101561303557806130218882612fc1565b84526020840193505060208101905061300e565b5050509392505050565b600082601f83011261305457613053612cde565b5b8135613064848260208601612fd6565b91505092915050565b6000602082840312156130835761308261298e565b5b600082013567ffffffffffffffff8111156130a1576130a0612993565b5b6130ad8482850161303f565b91505092915050565b6000602082840312156130cc576130cb61298e565b5b60006130da84828501612a0d565b91505092915050565b600081519050919050565b600082825260208201905092915050565b6000819050602082019050919050565b61311881612ad8565b82525050565b600061312a838361310f565b60208301905092915050565b6000602082019050919050565b600061314e826130e3565b61315881856130ee565b9350613163836130ff565b8060005b8381101561319457815161317b888261311e565b975061318683613136565b925050600181019050613167565b5085935050505092915050565b600060208201905081810360008301526131bb8184613143565b905092915050565b6131cc81612ad8565b81146131d757600080fd5b50565b6000813590506131e9816131c3565b92915050565b600080604083850312156132065761320561298e565b5b6000613214858286016131da565b925050602061322585828601612a0d565b9150509250929050565b6000806000606084860312156132485761324761298e565b5b600061325686828701612a0d565b935050602061326786828701612a0d565b925050604061327886828701612a0d565b9150509250925092565b600081519050919050565b600082825260208201905092915050565b6000819050602082019050919050565b600082825260208201905092915050565b60006132ca82612e04565b6132d481856132ae565b93506132df83612e20565b8060005b838110156133105781516132f78882612e3f565b975061330283612e57565b9250506001810190506132e3565b5085935050505092915050565b600061332983836132bf565b905092915050565b6000602082019050919050565b600061334982613282565b613353818561328d565b9350836020820285016133658561329e565b8060005b858110156133a15784840389528151613382858261331d565b945061338d83613331565b925060208a01995050600181019050613369565b50829750879550505050505092915050565b600060208201905081810360008301526133cd818461333e565b905092915050565b600067ffffffffffffffff8211156133f0576133ef612f03565b5b602082029050602081019050919050565b600061341461340f846133d5565b612f63565b9050808382526020820190506020840283018581111561343757613436612ce8565b5b835b81811015613460578061344c88826131da565b845260208401935050602081019050613439565b5050509392505050565b600082601f83011261347f5761347e612cde565b5b813561348f848260208601613401565b91505092915050565b6000806000606084860312156134b1576134b061298e565b5b60006134bf86828701612a0d565b935050602084013567ffffffffffffffff8111156134e0576134df612993565b5b6134ec8682870161346a565b92505060406134fd86828701612a0d565b9150509250925092565b600081519050919050565b600082825260208201905092915050565b6000819050602082019050919050565b61353c816129b8565b82525050565b600061354e8383613533565b60208301905092915050565b6000602082019050919050565b600061357282613507565b61357c8185613512565b935061358783613523565b8060005b838110156135b857815161359f8882613542565b97506135aa8361355a565b92505060018101905061358b565b5085935050505092915050565b600060208201905081810360008301526135df8184613567565b905092915050565b6135f0816129b8565b82525050565b600060208201905061360b60008301846135e7565b92915050565b6000806000806080858703121561362b5761362a61298e565b5b6000613639878288016129e1565b945050602061364a87828801612a0d565b935050604061365b87828801612a0d565b925050606061366c87828801612a0d565b91505092959194509250565b6000819050919050565b600061369d61369861369384612998565b613678565b612998565b9050919050565b60006136af82613682565b9050919050565b60006136c1826136a4565b9050919050565b6136d1816136b6565b82525050565b60006020820190506136ec60008301846136c8565b92915050565b600082825260208201905092915050565b600061370e82612b68565b61371881856136f2565b935061372383612b84565b8060005b8381101561375457815161373b8882612ba3565b975061374683612bbb565b925050600181019050613727565b5085935050505092915050565b6000602082019050818103600083015261377b8184613703565b905092915050565b600080fd5b82818337600083830152505050565b60006137a383856136f2565b93507f07ffffffffffffffffffffffffffffffffffffffffffffffffffffffffffffff8311156137d6576137d5613783565b5b6020830292506137e7838584613788565b82840190509392505050565b6000606082019050613808600083018761295a565b613815602083018661295a565b8181036040830152613828818486613797565b905095945050505050565b600082825260208201905092915050565b7f506c6179657220686173206d61786564206f757420746865697220617474656d60008201527f70747320666f7220746869732070757a7a6c652e205761697420666f7220746860208201527f65206e65787420576f72646c6520746f20706c617920616761696e2e00000000604082015250565b60006138c6605c83613833565b91506138d182613844565b606082019050919050565b600060208201905081810360008301526138f5816138b9565b9050919050565b7f4e487b7100000000000000000000000000000000000000000000000000000000600052603260045260246000fd5b7f4e487b7100000000000000000000000000000000000000000000000000000000600052601160045260246000fd5b600061396582612ad8565b915060ff8214156139795761397861392b565b5b600182019050919050565b60006080820190506139996000830187612ae5565b6139a6602083018661295a565b81810360408301526139b88185612e64565b90506139c76060830184612a6e565b95945050505050565b60006139db82612950565b91507fffffffffffffffffffffffffffffffffffffffffffffffffffffffffffffffff821415613a0e57613a0d61392b565b5b600182019050919050565b7f4e487b7100000000000000000000000000000000000000000000000000000000600052601260045260246000fd5b6000613a5382612950565b9150613a5e83612950565b925082613a6e57613a6d613a19565b5b828206905092915050565b6000613a8482612950565b9150613a8f83612950565b925082821015613aa257613aa161392b565b5b828203905092915050565b6000613ab882612950565b9150613ac383612950565b925082613ad357613ad2613a19565b5b828204905092915050565b6000613ae982612950565b91506000821415613afd57613afc61392b565b5b600182039050919050565b600081905092915050565b50565b6000613b23600083613b08565b9150613b2e82613b13565b600082019050919050565b6000613b4482613b16565b9150819050919050565b6000613b5982612950565b9150613b6483612950565b9250817fffffffffffffffffffffffffffffffffffffffffffffffffffffffffffffffff0483118215151615613b9d57613b9c61392b565b5b828202905092915050565b60008160011c9050919050565b6000808291508390505b6001851115613bff57808604811115613bdb57613bda61392b565b5b6001851615613bea5780820291505b8081029050613bf885613ba8565b9450613bbf565b94509492505050565b600082613c185760019050613cd4565b81613c265760009050613cd4565b8160018114613c3c5760028114613c4657613c75565b6001915050613cd4565b60ff841115613c5857613c5761392b565b5b8360020a915084821115613c6f57613c6e61392b565b5b50613cd4565b5060208310610133831016604e8410600b8410161715613caa5782820a905083811115613ca557613ca461392b565b5b613cd4565b613cb78484846001613bb5565b92509050818404811115613cce57613ccd61392b565b5b81810290505b9392505050565b6000613ce682612950565b9150613cf183612ad8565b9250613d1e7fffffffffffffffffffffffffffffffffffffffffffffffffffffffffffffffff8484613c08565b90509291505056fea2646970667358221220e117818a129341875de7065ed29fea4faeced3f2e7d97dd076d60cac269b371d64736f6c63430008090033",
  "linkReferences": {},
  "deployedLinkReferences": {}
}